:100000000C942A000C9447000C9447000C94470071
:100010000C9447000C9447000C9447000C94470044
:100020000C9447000C9447000C9447000C94470034
:100030000C9447000C9447000C9447000C94470024
:100040000C9447000C9447000C9447000C94470014
:100050000C94470011241FBECFE5D4E0DEBFCDBF16
:1000600010E0A0E6B0E0E2ECF1E002C005900D92F5
:10007000A439B107D9F710E0A4E9B0E001C01D929E
:10008000A639B107E1F70E946E000C94DF000C94D2
:100090000000882329F4E8B3F0E0E05AFF4F04C0E1
:1000A000E8B3F0E0E359FF4F808188BB08958FEFFC
:1000B00087BB18BA81BB12BA089580E687B987B1A9
:1000C0008F6187B986B1866C86B9089583E089B956
:1000D00010BC86E880BD88E18AB908958FEF87BBA0
:1000E00018BA81BB12BA80E687B987B18F6187B928
:1000F00086B1866C86B983E089B910BC86E880BD7C
:1001000088E18AB9E8B3F0E0E05AFF4F808188BB0C
:1001100080E29EE40197F1F7E8B3F0E0E05AFF4F88
:10012000808188BB80EE9EE20197F1F7E8B3F0E0B2
:10013000E05AFF4F808188BB86E794E20197F1F790
:10014000E8B3F0E0E05AFF4F808188BB8AED9EE182
:100150000197F1F728E53BE188B3823071F08330F5
:1001600018F48130B9F405C0843069F0883091F416
:100170000EC087B18077816003C087B180778260CD
:1001800087B9369A0CC087B180778360F9CF87B181
:100190008077F6CF87B18074816387B906C03699BE
:1001A000FECF5D9BFECF85B18CB9E8B3F0E0E05A9D
:1001B000FF4F808188BBC9010197F1F7CDCFF8943B
:0201C000FFCF6F
:1001C200010306020C0004000901000008010903F2
:1001D20001060002000C08000004070102070307E1
:1001E20007070007070707070300070107070702BA
:0401F20007070707ED
:00000001FF
