:100000000C942A000C9447000C9447000C94470071
:100010000C9447000C9447000C9447000C94470044
:100020000C9447000C9447000C9447000C94470034
:100030000C9447000C9447000C9447000C94470024
:100040000C9447000C9447000C9447000C94470014
:100050000C94470011241FBECFE5D4E0DEBFCDBF16
:1000600010E0A0E6B0E0E0EDF0E002C005900D92F7
:10007000A036B107D9F710E0A0E6B0E001C01D92AC
:10008000A036B107E1F70E9458000C9466000C946A
:10009000000083E089B910BC86E880BD88E18AB998
:1000A00008955F9BFECF8CB15D9BFECF8CB9089508
:1000B00083E089B910BC86E880BD88E18AB95F9B7E
:1000C000FECF8CB15D9BFECF8CB9F9CFF894FFCFFA
:00000001FF
