:100000000C942A000C9447000C9447000C94470071
:100010000C9447000C9447000C9447000C94470044
:100020000C9447000C9447000C9447000C94470034
:100030000C9447000C9447000C9447000C94470024
:100040000C9447000C9447000C9447000C94470014
:100050000C94470011241FBECFE5D4E0DEBFCDBF16
:1000600010E0A0E6B0E0E4EDF0E002C005900D92F3
:10007000A036B107D9F710E0A0E6B0E001C01D92AC
:10008000A036B107E1F70E9449000C9468000C9477
:10009000000083E089B910BC88E18AB986E080BDA0
:1000A0005F9BFECF8CB15D9BFECF8F5F8CB9F8CF8D
:1000B00083E089B910BC88E18AB986E080BD0895E3
:1000C0005F9BFECF8CB108955D9BFECF8CB90895E8
:0400D000F894FFCFD2
:00000001FF
